:101800003BC06FC054C053C052C051C050C04FC045
:101810004EC04DC04CC04BC04AC049C048C047C074
:1018200046C045C044C0040309041C037700770088
:1018300077002E00660069007300630068006C008A
:101840002E00640065000E03550053004200610045
:101850007300700012011001FF000008C016DC05C3
:101860000201010200010902120001010080320997
:10187000040000000000000011241FBECFE5D4E0EA
:10188000DEBFCDBF10E0A0E6B0E0ECECFFE102C0AF
:1018900005900D92A836B107D9F710E0A8E6B0E0A0
:1018A00001C01D92AD39B107E1F797D18DC3A8CF23
:1018B000A82FB92F80E090E041E050EA609530E039
:1018C00009C02D9182279795879510F08427952739
:1018D000305EC8F36F5FA8F30895EADF8D939D93A0
:1018E0000895CF93CFB7CF93C395B09BE9F7B09B43
:1018F00009C0B09B07C0B09B05C0B09B03C0B09BA4
:1019000001C0A1C0DF93C0918000DD27C957DF4F20
:10191000B09B02C0DF91EBCF2F930F931F9306B3C1
:101920002FEF00FB20F94F933F9316B34FEF0127A2
:1019300000FB21F93BE031C04E7F012F16B321603F
:1019400028C0102F4D7F2260000006B329C04B7FB6
:101950002460012F000016B32BC016B3477F286008
:101960002AC04F7E06B320612CC04F7D16B3206283
:101970002FC04F7B06B3206432C0422706B3499381
:101980004FEF0000102710FB20F916B31370C9F1B8
:10199000297F91F2012700FB21F906B3237F89F209
:1019A000315058F1102710FB22F916B3277E79F237
:1019B000012700FB23F92F7C81F206B3102710FBCF
:1019C00024F92F7971F200C016B3012700FB25F925
:1019D0002F7359F200C006B3102710FB26F92230EE
:1019E00040F200C016B3012700FB27F9243028F687
:1019F0004F77206816B30000F9CF10E41ABF002714
:101A000017C03B503195C31BD04010E41ABF08816A
:101A1000033CE9F00B34D9F020917E001981110FBD
:101A20001213EDCF093641F10D3211F0013E39F7B5
:101A3000009385003F914F911F910F912F91DF915E
:101A4000CAB7C6FD51CFCF91CFBFCF911895209186
:101A50008500222379F310918300112311F534308E
:101A600012F13093830020937F00109180003BE0BF
:101A7000311B3093800017C00091830001308CF43B
:101A80000AE53091600034FD10C000936000C3E7A8
:101A9000D0E00FC02795A8F45150A9F4220F000000
:101AA000F9CF4AE503C042ED01C0432FC4E1D0E0C5
:101AB00032E017B31360C09A17BB08B320E413E0F9
:101AC0005F93012756E008BB279520F4515021F47D
:101AD000220FF9CF012756E000003B5A08BBD0F295
:101AE000279528F4515029F4220F0000F9CF01273F
:101AF00056E0279508BB20F4515021F4220FF9CF6E
:101B0000012756E02991332308BB21F60C7F109161
:101B10008400110FC651D04008BB11F010937E0015
:101B200010E41ABF016017B31C7F402F4C7F5F91F8
:101B300000C000C008BB17BB48BB7CCFDC011396BC
:101B40002C91139714969C91149712968C9112973E
:101B5000803339F49370E92FF0E0ED59FF4F808125
:101B60000895F22FE92F883549F4222391F4E1E01A
:101B7000F0E089E08093570084910895803591F4D6
:101B8000222319F5E0E0F0E089E08093570084918A
:101B900008952830D1F4E3E0F0E089E08093570025
:101BA00084910895803221F4EE0FFF1F84910895EF
:101BB000883229F4EE0FFF1F319684910895803A00
:101BC00011F4CF01ECC1803C11F080E00895CF0109
:101BD00015966C91ECD180E0089514BA84E085BB31
:101BE00014BE81E08BBF82E08BBF9A99C8C185B7D4
:101BF000826085BF8BB780648BBFB89A8CE03197C9
:101C00008040E9F7B898789484B3836084BB90915E
:101C10008300935097FD26C180918000CCE0D0E0F6
:101C2000C81BD109C957DF4F80917F008D3209F061
:101C3000B8C0983009F014C183EC809373008AE532
:101C40008093600010926C003881832F8076298108
:101C50008823C1F188E690E0909382008093810010
:101C6000233031F4CE016ADF80936B0024E08FC013
:101C7000253031F12A3021F1822F8450863098F4BA
:101C80008A819B8190936E0080936D002930B1F022
:101C90008E8180936F008D8182708093700037FDFC
:101CA00071C09FEF70C0223021F4809161008E7F5F
:101CB00003C08091610081608093610020E067C073
:101CC00021E065C08A8110927C00222331F41092B9
:101CD0007D008CE790E022E050C0253019F480931D
:101CE000840048C02630B1F58B81813019F484E539
:101CF00098E104C0823041F486E698E19093820036
:101D00008093810022E122C08330F9F48A81882304
:101D100041F486E298E1909382008093810024E070
:101D200015C0813041F48AE298E19093820080935B
:101D300081002CE10BC0823041F486E498E190935D
:101D40008200809381002EE001C020E080E4809337
:101D50006C001DC0283019F486E890E009C02930D5
:101D600019F48093860006C02A3021F48CE790E0B5
:101D700021E003C08CE790E020E090938200809304
:101D8000810005C09E8180E880936C0007C08F8130
:101D9000882319F49E81921708F0922F9093620085
:101DA0005FC080916C0087FF5BC080916F00592FEE
:101DB000891708F4582F851B80936F0060E08823F3
:101DC00009F461E070917000E0916D00F0916E0097
:101DD00040E03BC088E1E030F80728F0F0936E0067
:101DE000E0936D003BC04E5FF8948991999121E09A
:101DF0000C0120935700E895112478949F012E5FE1
:101E00003F4FC9018F739070892B31F06623E1F049
:101E10004517D0F07723C1F0F89483E08093570002
:101E2000E895789407B600FCFDCFF89485E08093A0
:101E30005700E895789407B600FCFDCFF89481E14F
:101E400080935700E8957894F901451708F4C2CFBC
:101E5000F0936E00E0936D00662311F01092620023
:101E6000109283008091600084FF65C080916200C1
:101E70008F3F09F460C0182F893008F018E0811BEB
:101E8000809362008091730098E8892780937300A3
:101E9000112309F43EC080916C0087FF1EC0809121
:101EA0006F00811708F4182F811B80936F00E09159
:101EB0006D00F0916E00A4E7B0E003C084918D93B3
:101EC0003196812F90E08C589F4FA817B907B1F732
:101ED000F0936E00E0936D001AC0E0918100F091E4
:101EE000820086FF09C0912FA4E7B0E084918D9312
:101EF00031969150D9F707C0912FA4E7B0E08191B6
:101F00008D939150E1F7F0938200E09381001930B6
:101F100060F484E790E0612FE0DC612F6C5F6C304F
:101F200041F08FEF8093620004C08FEF80936200D6
:101F30006EE16093600094E186B3837031F4915058
:101F4000D9F71092840010927E0080916100803158
:101F500030F09A9B0FC080916100805109C09A991E
:101F600009C080916100823028F080916100825028
:101F70008093610080916100882309F048CE84B38A
:101F80008C7F84BBF894B89A15BA1BBE15BE81E04D
:101F90008BBF1BBEE0917100F09172000995E19931
:101FA000FECF9FBB8EBBE09A99278DB30895262F55
:101FB000E199FECF9FBB8EBB2DBB0FB6F894E29A82
:0C1FC000E19A0FBE01960895F894FFCF3F
:081FCC005AFEFF1E93070000FE
:0400000300001800E1
:00000001FF
